:1000000000308A006E280000FF00030E8301A1006B
:100010000A08A0008A010408A2007708A300780853
:10002000A4007908A5007A08A600831383128C30F7
:100030008400801C1D288C182E2822088400230888
:10004000F7002408F8002508F9002608FA0020081F
:100050008A00210E8300FF0E7F0E09008A110A120A
:1000600031282A08043C031C3F28031D3B2829088B
:10007000E13C031C3F28A90A0319AA0A4128AA0146
:10008000A9012A082802031C5028031D4B28270811
:1000900029020318502883160510831205145428CA
:1000A00083160510831205108C108A110A121D2860
:1000B0002B3084008313000803196B280630F800E6
:1000C000F701F70B6128F80B60287B30F700F70B7E
:1000D0006728800B5E288A110A12A42803081F399A
:1000E0008300A8013730A70083161F149F141F1523
:1000F0009F1183138312A901AA010030F80005386B
:1001000092001330831692008C14C03083128B043B
:10011000851C9428A808031D942827087B3C031CF1
:100120009428A70A0319A80A051DA128A808031DD9
:100130009D282708373C0318A12827080319A8037E
:0C014000A7030230AB0058288828630099
:02400E00323F3F
:00000001FF
;PIC16F877
;CRC=2D6E  CREATED="02-nov-17 23:27"
